:03000000020AC031
:0C0AC000787FE4F6D8FD75811E020A0361
:100AAF00534E313A0020534E323A0020534E333AD0
:010ABF000036
:060A4000C2A17F017E004F
:100A4600E4FDFCC3ED9FEE6480F8EC6480985015DD
:100A5600E4FBFA0BBB00010AEB64734A70F50DBDAB
:050A660000010C80DE20
:010A6B002268
:03000B00020AE402
:030AE400B2B73274
:0C0ACC008F90D2A2C2A0120A40C2A22247
:0C0AD8008F90D2A2D2A0120A40C2A2222B
:060A6C008B1A8A1B891C95
:100A7200E4F51DF51EAB1AAA1BA91C851E82851D55
:100A820083120918FF600D120AD8051EE51E70E5D3
:040A9200051D80E1DD
:010A9600223D
:100A97007F38120ACC7F057E00120A467F80120A31
:080AA700CC7F057E00020A4627
:100800000519E51970020518E4F514F515F50AF552
:100810000BAF80F5088F09AE08FC7D0A1209458CE4
:100820000C8D0DAE08AF097C007D0A1209458E08BB
:100830008F09E50D2430F50FE4350CF50EE509457B
:100840000860277C007D0A1209458C0C8D0DAE08CE
:10085000AF097C007D0A1209458E088F09E50D2439
:1008600030F511E4350CF510800675100075113067
:10087000750A00750B01E5094508602BAE08AF0944
:100880007C007D0A1209458C0C8D0DAE08AF097CE9
:10089000007D0A1209458E088F09E50D2430F513F5
:1008A000E4350CF5128006751200751330751400CE
:1008B000751502E5196401451870057FC0120ACC50
:1008C000E5196402451870057FC5120ACCE5196464
:1008D00003451870057FCA120ACCE5156402451459
:1008E0007005AF13120AD8E50B6401450A7005AF15
:1008F00011120AD8AF0F120AD8E51964034518700F
:1009000016F518F519F512F513F510F511F50EF5A4
:080910000F7F0AFE120A4622C5
:10099A00E51745167006C2B6C2B5C2B4E5176401BA
:1009AA0045167006C2B6C2B5D2B4E517640245163A
:1009BA007006C2B6D2B5C2B47F027E00120A46D20F
:1009CA00B0120A46D2B11F120A46C2B0120A46C271
:1009DA00B120B2FD30B2FDD2B31208007F027E0010
:1009EA00120A46C2B30517E51770020516640345D5
:0909FA0016709DF516F5178097A3
:100A0300D2B2C2B0C2B3C2B1758902758CFD75A8EA
:100A130082D28CE4F516F517F518F519120A977BAF
:100A2300FF7A0A79AF120A6C7BFF7A0A79B4120A49
:0D0A33006C7BFF7A0A79BA120A6C02099AEC
:10091800BB010CE58229F582E5833AF583E0225094
:1009280006E92582F8E622BBFE06E92582F8E222DE
:0D093800E58229F582E5833AF583E49322F8
:10094500BC000BBE0029EF8DF084FFADF022E4CC96
:10095500F875F008EF2FFFEE33FEEC33FCEE9DEC5F
:10096500984005FCEE9DFE0FD5F0E9E4CEFD22EDA5
:10097500F8F5F0EE8420D21CFEADF075F008EF2FEF
:10098500FFED33FD4007985006D5F0F222C398FDE0
:050995000FD5F0EA227D
:00000001FF
